{"abi":[{"type":"constructor","inputs":[],"stateMutability":"nonpayable"},{"type":"function","name":"FAUCET_AMOUNT","inputs":[],"outputs":[{"name":"","type":"uint256","internalType":"uint256"}],"stateMutability":"view"},{"type":"function","name":"allowance","inputs":[{"name":"owner","type":"address","internalType":"address"},{"name":"spender","type":"address","internalType":"address"}],"outputs":[{"name":"","type":"uint256","internalType":"uint256"}],"stateMutability":"view"},{"type":"function","name":"approve","inputs":[{"name":"spender","type":"address","internalType":"address"},{"name":"value","type":"uint256","internalType":"uint256"}],"outputs":[{"name":"","type":"bool","internalType":"bool"}],"stateMutability":"nonpayable"},{"type":"function","name":"balanceOf","inputs":[{"name":"account","type":"address","internalType":"address"}],"outputs":[{"name":"","type":"uint256","internalType":"uint256"}],"stateMutability":"view"},{"type":"function","name":"decimals","inputs":[],"outputs":[{"name":"","type":"uint8","internalType":"uint8"}],"stateMutability":"pure"},{"type":"function","name":"faucet","inputs":[],"outputs":[],"stateMutability":"nonpayable"},{"type":"function","name":"mint","inputs":[{"name":"to","type":"address","internalType":"address"},{"name":"amount","type":"uint256","internalType":"uint256"}],"outputs":[],"stateMutability":"nonpayable"},{"type":"function","name":"name","inputs":[],"outputs":[{"name":"","type":"string","internalType":"string"}],"stateMutability":"view"},{"type":"function","name":"symbol","inputs":[],"outputs":[{"name":"","type":"string","internalType":"string"}],"stateMutability":"view"},{"type":"function","name":"totalSupply","inputs":[],"outputs":[{"name":"","type":"uint256","internalType":"uint256"}],"stateMutability":"view"},{"type":"function","name":"transfer","inputs":[{"name":"to","type":"address","internalType":"address"},{"name":"value","type":"uint256","internalType":"uint256"}],"outputs":[{"name":"","type":"bool","internalType":"bool"}],"stateMutability":"nonpayable"},{"type":"function","name":"transferFrom","inputs":[{"name":"from","type":"address","internalType":"address"},{"name":"to","type":"address","internalType":"address"},{"name":"value","type":"uint256","internalType":"uint256"}],"outputs":[{"name":"","type":"bool","internalType":"bool"}],"stateMutability":"nonpayable"},{"type":"event","name":"Approval","inputs":[{"name":"owner","type":"address","indexed":true,"internalType":"address"},{"name":"spender","type":"address","indexed":true,"internalType":"address"},{"name":"value","type":"uint256","indexed":false,"internalType":"uint256"}],"anonymous":false},{"type":"event","name":"Transfer","inputs":[{"name":"from","type":"address","indexed":true,"internalType":"address"},{"name":"to","type":"address","indexed":true,"internalType":"address"},{"name":"value","type":"uint256","indexed":false,"internalType":"uint256"}],"anonymous":false},{"type":"error","name":"ERC20InsufficientAllowance","inputs":[{"name":"spender","type":"address","internalType":"address"},{"name":"allowance","type":"uint256","internalType":"uint256"},{"name":"needed","type":"uint256","internalType":"uint256"}]},{"type":"error","name":"ERC20InsufficientBalance","inputs":[{"name":"sender","type":"address","internalType":"address"},{"name":"balance","type":"uint256","internalType":"uint256"},{"name":"needed","type":"uint256","internalType":"uint256"}]},{"type":"error","name":"ERC20InvalidApprover","inputs":[{"name":"approver","type":"address","internalType":"address"}]},{"type":"error","name":"ERC20InvalidReceiver","inputs":[{"name":"receiver","type":"address","internalType":"address"}]},{"type":"error","name":"ERC20InvalidSender","inputs":[{"name":"sender","type":"address","internalType":"address"}]},{"type":"error","name":"ERC20InvalidSpender","inputs":[{"name":"spender","type":"address","internalType":"address"}]}],"bytecode":{"object":"0x608034620003a1576040906001600160401b0390808301828111828210176200038d5783526009815260209068135bd8dac81554d11560ba1b82820152835192848401848110828211176200038d578552600493848152631554d11560e21b8482015282518281116200037a576003918254916001958684811c941680156200036f575b888510146200035c578190601f9485811162000309575b508890858311600114620002a6575f926200029a575b50505f1982861b1c191690861b1783555b8051938411620002875786548581811c911680156200027c575b87821014620002695782811162000221575b5085918411600114620001ba579383949184925f95620001ae575b50501b925f19911b1c19161782555b3315620001985760025469d3c21bcecceda1000000928382018092116200018557505f917fddf252ad1be2c89b69c2b068fc378daa952ba7f163c4a11628f55a4df523b3ef9160025533835282815284832084815401905584519384523393a3516107f29081620003a68239f35b601190634e487b7160e01b5f525260245ffd5b505f602492519163ec442f0560e01b8352820152fd5b015193505f8062000108565b9190601f19841692875f5284875f20945f5b8989838310620002095750505010620001ef575b50505050811b01825562000117565b01519060f8845f19921b161c191690555f808080620001e0565b868601518955909701969485019488935001620001cc565b875f52865f208380870160051c8201928988106200025f575b0160051c019086905b82811062000253575050620000ed565b5f815501869062000243565b925081926200023a565b602288634e487b7160e01b5f525260245ffd5b90607f1690620000db565b604187634e487b7160e01b5f525260245ffd5b015190505f80620000b0565b90889350601f19831691875f528a5f20925f5b8c828210620002f25750508411620002da575b505050811b018355620000c1565b01515f1983881b60f8161c191690555f8080620002cc565b8385015186558c97909501949384019301620002b9565b909150855f52885f208580850160051c8201928b861062000352575b918a91869594930160051c01915b828110620003435750506200009a565b5f81558594508a910162000333565b9250819262000325565b602289634e487b7160e01b5f525260245ffd5b93607f169362000083565b604186634e487b7160e01b5f525260245ffd5b634e487b7160e01b5f52604160045260245ffd5b5f80fdfe6080604081815260049182361015610015575f80fd5b5f3560e01c90816306fdde031461059557508063095ea7b3146104ed57806318160ddd146104cf57806323b872dd146103dd578063313ce567146103c257806340c10f191461033057806370a08231146102fa57806376697640146102d757806395d89b41146101b8578063a9059cbb14610188578063dd62ed3e1461013f5763de5f72fd146100a3575f80fd5b3461013b575f36600319011261013b5733156101255760025468056bc75e2d63100000928382018092116101125750600255335f525f602052805f20828154019055519081525f7fddf252ad1be2c89b69c2b068fc378daa952ba7f163c4a11628f55a4df523b3ef60203393a3005b601190634e487b7160e01b5f525260245ffd5b905f602492519163ec442f0560e01b8352820152fd5b5f80fd5b503461013b578060031936011261013b5760209061015b6106b6565b6101636106cc565b9060018060a01b038091165f5260018452825f2091165f528252805f20549051908152f35b503461013b578060031936011261013b576020906101b16101a76106b6565b60243590336106e2565b5160018152f35b503461013b575f36600319011261013b578051905f835460018160011c90600183169283156102cd575b60209384841081146102ba5783885290811561029e575060011461024a575b505050829003601f01601f191682019267ffffffffffffffff841183851017610237575082918261023392528261066f565b0390f35b604190634e487b7160e01b5f525260245ffd5b5f878152929350837f8a35acfbc15ff81a39ae7d344fd709f28e8600b4aa8c65c6b64bfe7fe36bd19b5b83851061028a57505050508301015f8080610201565b805488860183015293019284908201610274565b60ff1916878501525050151560051b84010190505f8080610201565b602289634e487b7160e01b5f525260245ffd5b91607f16916101e2565b503461013b575f36600319011261013b576020905168056bc75e2d631000008152f35b503461013b57602036600319011261013b576020906001600160a01b0361031f6106b6565b165f525f8252805f20549051908152f35b503461013b578060031936011261013b576103496106b6565b6001600160a01b031691602435919083156103ad576002549083820180921161011257505f927fddf252ad1be2c89b69c2b068fc378daa952ba7f163c4a11628f55a4df523b3ef9260209260025585855284835280852082815401905551908152a3005b5f602492519163ec442f0560e01b8352820152fd5b503461013b575f36600319011261013b576020905160128152f35b50903461013b57606036600319011261013b576103f86106b6565b6104006106cc565b906044359260018060a01b038216805f526001602052855f20335f52602052855f2054915f19831061043b575b6020876101b18888886106e2565b8583106104a357811561048d57331561047757505f908152600160209081528682203383528152908690209185900390915582906101b161042d565b6024905f885191634a1406b160e11b8352820152fd5b6024905f88519163e602df0560e01b8352820152fd5b8651637dc7a0d960e11b8152339181019182526020820193909352604081018690528291506060010390fd5b503461013b575f36600319011261013b576020906002549051908152f35b503461013b578060031936011261013b576105066106b6565b60243590331561057f576001600160a01b03169081156105695760209350335f5260018452825f20825f52845280835f205582519081527f8c5be1e5ebec7d5bd14f71427d1e84f3dd0314c0f7b2291e5b200ac8c7c3b925843392a35160018152f35b8251634a1406b160e11b81525f81860152602490fd5b825163e602df0560e01b81525f81860152602490fd5b9190503461013b575f36600319011261013b575f60035460018160011c9060018316928315610665575b60209384841081146102ba5783885290811561029e575060011461060f57505050829003601f01601f191682019267ffffffffffffffff841183851017610237575082918261023392528261066f565b60035f908152929350837fc2575a0e9e593c00f959f8c92f12db2869c3395a3b0502d05e2516446f71f85b5b83851061065157505050508301015f8080610201565b80548886018301529301928490820161063b565b91607f16916105bf565b602080825282518183018190529093925f5b8281106106a257505060409293505f838284010152601f8019910116010190565b818101860151848201604001528501610681565b600435906001600160a01b038216820361013b57565b602435906001600160a01b038216820361013b57565b916001600160a01b038084169283156107a4571692831561078c57825f525f60205260405f20549082821061075a5750817fddf252ad1be2c89b69c2b068fc378daa952ba7f163c4a11628f55a4df523b3ef92602092855f525f84520360405f2055845f5260405f20818154019055604051908152a3565b60405163391434e360e21b81526001600160a01b03919091166004820152602481019190915260448101829052606490fd5b60405163ec442f0560e01b81525f6004820152602490fd5b604051634b637e8f60e11b81525f6004820152602490fdfea26469706673582212208b437d679fb7ec5ce36fc56d8146b9746e3677a6d99b761043aeb37cd564f64664736f6c63430008180033","linkReferences":{}},"methodIdentifiers":{"FAUCET_AMOUNT()":"76697640","allowance(address,address)":"dd62ed3e","approve(address,uint256)":"095ea7b3","balanceOf(address)":"70a08231","decimals()":"313ce567","faucet()":"de5f72fd","mint(address,uint256)":"40c10f19","name()":"06fdde03","symbol()":"95d89b41","totalSupply()":"18160ddd","transfer(address,uint256)":"a9059cbb","transferFrom(address,address,uint256)":"23b872dd"},"id":53}