{"abi":[{"type":"constructor","inputs":[],"stateMutability":"nonpayable"},{"type":"function","name":"FAUCET_AMOUNT","inputs":[],"outputs":[{"name":"","type":"uint256","internalType":"uint256"}],"stateMutability":"view"},{"type":"function","name":"allowance","inputs":[{"name":"owner","type":"address","internalType":"address"},{"name":"spender","type":"address","internalType":"address"}],"outputs":[{"name":"","type":"uint256","internalType":"uint256"}],"stateMutability":"view"},{"type":"function","name":"approve","inputs":[{"name":"spender","type":"address","internalType":"address"},{"name":"value","type":"uint256","internalType":"uint256"}],"outputs":[{"name":"","type":"bool","internalType":"bool"}],"stateMutability":"nonpayable"},{"type":"function","name":"balanceOf","inputs":[{"name":"account","type":"address","internalType":"address"}],"outputs":[{"name":"","type":"uint256","internalType":"uint256"}],"stateMutability":"view"},{"type":"function","name":"decimals","inputs":[],"outputs":[{"name":"","type":"uint8","internalType":"uint8"}],"stateMutability":"pure"},{"type":"function","name":"faucet","inputs":[],"outputs":[],"stateMutability":"nonpayable"},{"type":"function","name":"mint","inputs":[{"name":"to","type":"address","internalType":"address"},{"name":"amount","type":"uint256","internalType":"uint256"}],"outputs":[],"stateMutability":"nonpayable"},{"type":"function","name":"name","inputs":[],"outputs":[{"name":"","type":"string","internalType":"string"}],"stateMutability":"view"},{"type":"function","name":"symbol","inputs":[],"outputs":[{"name":"","type":"string","internalType":"string"}],"stateMutability":"view"},{"type":"function","name":"totalSupply","inputs":[],"outputs":[{"name":"","type":"uint256","internalType":"uint256"}],"stateMutability":"view"},{"type":"function","name":"transfer","inputs":[{"name":"to","type":"address","internalType":"address"},{"name":"value","type":"uint256","internalType":"uint256"}],"outputs":[{"name":"","type":"bool","internalType":"bool"}],"stateMutability":"nonpayable"},{"type":"function","name":"transferFrom","inputs":[{"name":"from","type":"address","internalType":"address"},{"name":"to","type":"address","internalType":"address"},{"name":"value","type":"uint256","internalType":"uint256"}],"outputs":[{"name":"","type":"bool","internalType":"bool"}],"stateMutability":"nonpayable"},{"type":"event","name":"Approval","inputs":[{"name":"owner","type":"address","indexed":true,"internalType":"address"},{"name":"spender","type":"address","indexed":true,"internalType":"address"},{"name":"value","type":"uint256","indexed":false,"internalType":"uint256"}],"anonymous":false},{"type":"event","name":"Transfer","inputs":[{"name":"from","type":"address","indexed":true,"internalType":"address"},{"name":"to","type":"address","indexed":true,"internalType":"address"},{"name":"value","type":"uint256","indexed":false,"internalType":"uint256"}],"anonymous":false},{"type":"error","name":"ERC20InsufficientAllowance","inputs":[{"name":"spender","type":"address","internalType":"address"},{"name":"allowance","type":"uint256","internalType":"uint256"},{"name":"needed","type":"uint256","internalType":"uint256"}]},{"type":"error","name":"ERC20InsufficientBalance","inputs":[{"name":"sender","type":"address","internalType":"address"},{"name":"balance","type":"uint256","internalType":"uint256"},{"name":"needed","type":"uint256","internalType":"uint256"}]},{"type":"error","name":"ERC20InvalidApprover","inputs":[{"name":"approver","type":"address","internalType":"address"}]},{"type":"error","name":"ERC20InvalidReceiver","inputs":[{"name":"receiver","type":"address","internalType":"address"}]},{"type":"error","name":"ERC20InvalidSender","inputs":[{"name":"sender","type":"address","internalType":"address"}]},{"type":"error","name":"ERC20InvalidSpender","inputs":[{"name":"spender","type":"address","internalType":"address"}]}],"bytecode":{"object":"0x608060405234801562000010575f80fd5b5060405180604001604052806009815260200168135bd8dac81554d11560ba1b815250604051806040016040528060048152602001631554d11560e21b8152508160039081620000619190620002a2565b506004620000708282620002a2565b5050506200008f3369d3c21bcecceda10000006200009560201b60201c565b62000394565b6001600160a01b038216620000c45760405163ec442f0560e01b81525f60048201526024015b60405180910390fd5b620000d15f8383620000d5565b5050565b6001600160a01b03831662000103578060025f828254620000f791906200036e565b90915550620001759050565b6001600160a01b0383165f9081526020819052604090205481811015620001575760405163391434e360e21b81526001600160a01b03851660048201526024810182905260448101839052606401620000bb565b6001600160a01b0384165f9081526020819052604090209082900390555b6001600160a01b0382166200019357600280548290039055620001b1565b6001600160a01b0382165f9081526020819052604090208054820190555b816001600160a01b0316836001600160a01b03167fddf252ad1be2c89b69c2b068fc378daa952ba7f163c4a11628f55a4df523b3ef83604051620001f791815260200190565b60405180910390a3505050565b634e487b7160e01b5f52604160045260245ffd5b600181811c908216806200022d57607f821691505b6020821081036200024c57634e487b7160e01b5f52602260045260245ffd5b50919050565b601f8211156200029d57805f5260205f20601f840160051c81016020851015620002795750805b601f840160051c820191505b818110156200029a575f815560010162000285565b50505b505050565b81516001600160401b03811115620002be57620002be62000204565b620002d681620002cf845462000218565b8462000252565b602080601f8311600181146200030c575f8415620002f45750858301515b5f19600386901b1c1916600185901b17855562000366565b5f85815260208120601f198616915b828110156200033c578886015182559484019460019091019084016200031b565b50858210156200035a57878501515f19600388901b60f8161c191681555b505060018460011b0185555b505050505050565b808201808211156200038e57634e487b7160e01b5f52601160045260245ffd5b92915050565b61079f80620003a25f395ff3fe608060405234801561000f575f80fd5b50600436106100b1575f3560e01c806370a082311161006e57806370a082311461013f578063766976401461016757806395d89b4114610177578063a9059cbb1461017f578063dd62ed3e14610192578063de5f72fd146101ca575f80fd5b806306fdde03146100b5578063095ea7b3146100d357806318160ddd146100f657806323b872dd14610108578063313ce5671461011b57806340c10f191461012a575b5f80fd5b6100bd6101d2565b6040516100ca91906105f9565b60405180910390f35b6100e66100e1366004610660565b610262565b60405190151581526020016100ca565b6002545b6040519081526020016100ca565b6100e6610116366004610688565b61027b565b604051601281526020016100ca565b61013d610138366004610660565b61029e565b005b6100fa61014d3660046106c1565b6001600160a01b03165f9081526020819052604090205490565b6100fa68056bc75e2d6310000081565b6100bd6102ac565b6100e661018d366004610660565b6102bb565b6100fa6101a03660046106e1565b6001600160a01b039182165f90815260016020908152604080832093909416825291909152205490565b61013d6102c8565b6060600380546101e190610712565b80601f016020809104026020016040519081016040528092919081815260200182805461020d90610712565b80156102585780601f1061022f57610100808354040283529160200191610258565b820191905f5260205f20905b81548152906001019060200180831161023b57829003601f168201915b5050505050905090565b5f3361026f8185856102dd565b60019150505b92915050565b5f336102888582856102ef565b610293858585610370565b506001949350505050565b6102a882826103cd565b5050565b6060600480546101e190610712565b5f3361026f818585610370565b6102db3368056bc75e2d631000006103cd565b565b6102ea8383836001610401565b505050565b6001600160a01b038381165f908152600160209081526040808320938616835292905220545f1981101561036a578181101561035c57604051637dc7a0d960e11b81526001600160a01b038416600482015260248101829052604481018390526064015b60405180910390fd5b61036a84848484035f610401565b50505050565b6001600160a01b03831661039957604051634b637e8f60e11b81525f6004820152602401610353565b6001600160a01b0382166103c25760405163ec442f0560e01b81525f6004820152602401610353565b6102ea8383836104d3565b6001600160a01b0382166103f65760405163ec442f0560e01b81525f6004820152602401610353565b6102a85f83836104d3565b6001600160a01b03841661042a5760405163e602df0560e01b81525f6004820152602401610353565b6001600160a01b03831661045357604051634a1406b160e11b81525f6004820152602401610353565b6001600160a01b038085165f908152600160209081526040808320938716835292905220829055801561036a57826001600160a01b0316846001600160a01b03167f8c5be1e5ebec7d5bd14f71427d1e84f3dd0314c0f7b2291e5b200ac8c7c3b925846040516104c591815260200190565b60405180910390a350505050565b6001600160a01b0383166104fd578060025f8282546104f2919061074a565b9091555061056d9050565b6001600160a01b0383165f908152602081905260409020548181101561054f5760405163391434e360e21b81526001600160a01b03851660048201526024810182905260448101839052606401610353565b6001600160a01b0384165f9081526020819052604090209082900390555b6001600160a01b038216610589576002805482900390556105a7565b6001600160a01b0382165f9081526020819052604090208054820190555b816001600160a01b0316836001600160a01b03167fddf252ad1be2c89b69c2b068fc378daa952ba7f163c4a11628f55a4df523b3ef836040516105ec91815260200190565b60405180910390a3505050565b5f602080835283518060208501525f5b8181101561062557858101830151858201604001528201610609565b505f604082860101526040601f19601f8301168501019250505092915050565b80356001600160a01b038116811461065b575f80fd5b919050565b5f8060408385031215610671575f80fd5b61067a83610645565b946020939093013593505050565b5f805f6060848603121561069a575f80fd5b6106a384610645565b92506106b160208501610645565b9150604084013590509250925092565b5f602082840312156106d1575f80fd5b6106da82610645565b9392505050565b5f80604083850312156106f2575f80fd5b6106fb83610645565b915061070960208401610645565b90509250929050565b600181811c9082168061072657607f821691505b60208210810361074457634e487b7160e01b5f52602260045260245ffd5b50919050565b8082018082111561027557634e487b7160e01b5f52601160045260245ffdfea26469706673582212200cdfc9f22644a76e99f0809f9a8581271a9963852131bdb1d10774b3f3d8846c64736f6c63430008180033","linkReferences":{}},"methodIdentifiers":{"FAUCET_AMOUNT()":"76697640","allowance(address,address)":"dd62ed3e","approve(address,uint256)":"095ea7b3","balanceOf(address)":"70a08231","decimals()":"313ce567","faucet()":"de5f72fd","mint(address,uint256)":"40c10f19","name()":"06fdde03","symbol()":"95d89b41","totalSupply()":"18160ddd","transfer(address,uint256)":"a9059cbb","transferFrom(address,address,uint256)":"23b872dd"},"id":49}