{"abi":[{"type":"constructor","inputs":[],"stateMutability":"nonpayable"},{"type":"function","name":"UPGRADE_INTERFACE_VERSION","inputs":[],"outputs":[{"name":"","type":"string","internalType":"string"}],"stateMutability":"view"},{"type":"function","name":"executeBatch","inputs":[{"name":"calls","type":"tuple[]","internalType":"struct IUSDTPaymaster.Call[]","components":[{"name":"to","type":"address","internalType":"address"},{"name":"data","type":"bytes","internalType":"bytes"}]}],"outputs":[],"stateMutability":"nonpayable"},{"type":"function","name":"initialize","inputs":[{"name":"_owner","type":"address","internalType":"address"}],"outputs":[],"stateMutability":"nonpayable"},{"type":"function","name":"isValidSignature","inputs":[{"name":"hash","type":"bytes32","internalType":"bytes32"},{"name":"signature","type":"bytes","internalType":"bytes"}],"outputs":[{"name":"","type":"bytes4","internalType":"bytes4"}],"stateMutability":"view"},{"type":"function","name":"owner","inputs":[],"outputs":[{"name":"","type":"address","internalType":"address"}],"stateMutability":"view"},{"type":"function","name":"proxiableUUID","inputs":[],"outputs":[{"name":"","type":"bytes32","internalType":"bytes32"}],"stateMutability":"view"},{"type":"function","name":"renounceOwnership","inputs":[],"outputs":[],"stateMutability":"nonpayable"},{"type":"function","name":"transferOwnership","inputs":[{"name":"newOwner","type":"address","internalType":"address"}],"outputs":[],"stateMutability":"nonpayable"},{"type":"function","name":"upgradeToAndCall","inputs":[{"name":"newImplementation","type":"address","internalType":"address"},{"name":"data","type":"bytes","internalType":"bytes"}],"outputs":[],"stateMutability":"payable"},{"type":"event","name":"BatchExecuted","inputs":[{"name":"caller","type":"address","indexed":false,"internalType":"address"},{"name":"callCount","type":"uint256","indexed":false,"internalType":"uint256"}],"anonymous":false},{"type":"event","name":"Initialized","inputs":[{"name":"version","type":"uint64","indexed":false,"internalType":"uint64"}],"anonymous":false},{"type":"event","name":"OwnershipTransferred","inputs":[{"name":"previousOwner","type":"address","indexed":true,"internalType":"address"},{"name":"newOwner","type":"address","indexed":true,"internalType":"address"}],"anonymous":false},{"type":"event","name":"Upgraded","inputs":[{"name":"implementation","type":"address","indexed":true,"internalType":"address"}],"anonymous":false},{"type":"error","name":"AddressEmptyCode","inputs":[{"name":"target","type":"address","internalType":"address"}]},{"type":"error","name":"ERC1967InvalidImplementation","inputs":[{"name":"implementation","type":"address","internalType":"address"}]},{"type":"error","name":"ERC1967NonPayable","inputs":[]},{"type":"error","name":"FailedCall","inputs":[]},{"type":"error","name":"InvalidInitialization","inputs":[]},{"type":"error","name":"NotInitializing","inputs":[]},{"type":"error","name":"OwnableInvalidOwner","inputs":[{"name":"owner","type":"address","internalType":"address"}]},{"type":"error","name":"OwnableUnauthorizedAccount","inputs":[{"name":"account","type":"address","internalType":"address"}]},{"type":"error","name":"UUPSUnauthorizedCallContext","inputs":[]},{"type":"error","name":"UUPSUnsupportedProxiableUUID","inputs":[{"name":"slot","type":"bytes32","internalType":"bytes32"}]}],"bytecode":{"object":"0x60a080604052346100cc57306080527ff0c57e16840df040f15088dc2f81fe391c3923bec73e23a9662efc9c229c6a009081549060ff8260401c166100bd57506001600160401b036002600160401b031982821601610078575b604051610ad690816100d1823960805181818161032701526104030152f35b6001600160401b031990911681179091556040519081527fc7f505b2f371ae2175ee4913f4499e1f2633a7b5936321eed1cdaeb6115181d290602090a15f8080610059565b63f92ee8a960e01b8152600490fd5b5f80fdfe60406080815260049081361015610014575f80fd5b5f3560e01c9182631626ba7e1461076957826321566279146105a35782634f1ef2861461038b57826352d1902d14610314578263715018a6146102ad5782638da5cb5b14610279578263ad3cb1cc146101db578263c4d66de8146100b157505063f2fde38b14610082575f80fd5b346100ad5760203660031901126100ad576100ab61009e6107d2565b6100a6610976565b6108b3565b005b5f80fd5b346100ad5760203660031901126100ad576100ca6107d2565b907ff0c57e16840df040f15088dc2f81fe391c3923bec73e23a9662efc9c229c6a0091825460ff81861c16159267ffffffffffffffff8216801590816101d3575b60011490816101c9575b1590816101c0575b506101b2575067ffffffffffffffff1981166001178455610150919083610193575b506101486109ae565b6100a66109ae565b61015657005b805468ff00000000000000001916905551600181527fc7f505b2f371ae2175ee4913f4499e1f2633a7b5936321eed1cdaeb6115181d290602090a1005b68ffffffffffffffffff1916680100000000000000011784558561013f565b855163f92ee8a960e01b8152fd5b9050158761011d565b303b159150610115565b85915061010b565b90346100ad575f3660031901126100ad578051918183019083821067ffffffffffffffff83111761026657508152600582526020640352e302e360dc1b60208401528151928391602083528151918260208501525f5b8381106102505750505f83830185015250601f01601f19168101030190f35b8181018301518782018701528694508201610231565b604190634e487b7160e01b5f525260245ffd5b50346100ad575f3660031901126100ad575f80516020610a818339815191525490516001600160a01b039091168152602090f35b346100ad575f3660031901126100ad576102c5610976565b5f80516020610a8183398151915280546001600160a01b031981169091555f906001600160a01b03167f8be0079c531659141344cd1fd0a4f28419497f9722a3daafe3b4186f6b6457e08280a3005b90346100ad575f3660031901126100ad577f00000000000000000000000000000000000000000000000000000000000000006001600160a01b0316300361037e57602090517f360894a13ba1a3210667c828492db98dca3e2076cc3735a920a3ca505d382bbc8152f35b5163703e46dd60e11b8152fd5b816003193601126100ad5761039e6107d2565b60249283359167ffffffffffffffff83116100ad57366023840112156100ad5782840135906103cc8261081e565b916103d9845193846107e8565b808352602094368883830101116100ad57815f928988930183870137840101526001600160a01b037f00000000000000000000000000000000000000000000000000000000000000008116308114908115610575575b506105655761043c610976565b83516352d1902d60e01b81529082169480828881895afa9182915f93610535575b5050610477575050505191634c9c8ce360e01b8352820152fd5b85938591887f360894a13ba1a3210667c828492db98dca3e2076cc3735a920a3ca505d382bbc918281036105205750843b1561050c575080546001600160a01b0319168317905551907fbc7cd75a20ee27fd9adebab32041f755214dbc6bffa90cc0225b39da2e5c2d3b5f80a28251156104f657506100ab92506109ef565b9150503461050057005b63b398979f60e01b8152fd5b8251634c9c8ce360e01b8152808801859052fd5b8351632a87526960e21b815280890191909152fd5b9080929350813d831161055e575b61054d81836107e8565b810103126100ad575190888061045d565b503d610543565b835163703e46dd60e11b81528690fd5b9050817f360894a13ba1a3210667c828492db98dca3e2076cc3735a920a3ca505d382bbc541614158861042f565b90346100ad576020806003193601126100ad5767ffffffffffffffff9280358481116100ad57366023820112156100ad5780820135918583116100ad576024956024830192602436918660051b0101116100ad576005841161071b575f5b848110610638577f7ffb1df8fb1cb14bf915045200c5b519c9cdd3c996c3fa9e781810674194029c878787825191338352820152a1005b61064381868661087d565b356001600160a01b03811681036100ad5761065f82878761087d565b8781013590601e19813603018212156100ad5701908135918483116100ad5788019082360382136100ad57825f80949381948d519384928337810182815203925af13d15610716573d6106b18161081e565b906106be8a5192836107e8565b81525f883d92013e5b156106d457600101610601565b865162461bcd60e51b8152808401879052601e818a01527f53696d706c65373730324163636f756e743a2063616c6c206661696c656400006044820152606490fd5b6106c7565b855162461bcd60e51b8152808301869052602260248201527f53696d706c65373730324163636f756e743a20626174636820746f6f206c6172604482015261676560f01b6064820152608490fd5b90346100ad57806003193601126100ad5760243567ffffffffffffffff8082116100ad57366023830112156100ad57818401359081116100ad5736602482840101116100ad5760209360246107c09301903561083a565b90516001600160e01b03199091168152f35b600435906001600160a01b03821682036100ad57565b90601f8019910116810190811067ffffffffffffffff82111761080a57604052565b634e487b7160e01b5f52604160045260245ffd5b67ffffffffffffffff811161080a57601f01601f191660200190565b906108459291610924565b5f80516020610a81833981519152546001600160a01b03918216911614610872576001600160e01b031990565b630b135d3f60e11b90565b919081101561089f5760051b81013590603e19813603018212156100ad570190565b634e487b7160e01b5f52603260045260245ffd5b6001600160a01b0390811690811561090c575f80516020610a8183398151915280546001600160a01b031981168417909155167f8be0079c531659141344cd1fd0a4f28419497f9722a3daafe3b4186f6b6457e05f80a3565b604051631e4fbdf760e01b81525f6004820152602490fd5b90916041146109335750505f90565b60805f91602080946040519283526040810135851a82840152803560408401520135606082015282805260015afa1561096b575f5190565b6040513d5f823e3d90fd5b5f80516020610a81833981519152546001600160a01b0316330361099657565b60405163118cdaa760e01b8152336004820152602490fd5b60ff7ff0c57e16840df040f15088dc2f81fe391c3923bec73e23a9662efc9c229c6a005460401c16156109dd57565b604051631afcd79f60e31b8152600490fd5b905f8091602081519101845af48080610a6d575b15610a235750506040513d81523d5f602083013e60203d82010160405290565b15610a4a57604051639996b31560e01b81526001600160a01b039091166004820152602490fd5b3d15610a5b576040513d5f823e3d90fd5b60405163d6bda27560e01b8152600490fd5b503d151580610a035750813b1515610a0356fe9016d09d72d40fdae2fd8ceac6b6234c7706214fd39c1cd1e609a0528c199300a26469706673582212205cd4cdaa33f40edb39022448c332cb558938633cbb7b33efedfb4170a1e528ba64736f6c63430008180033","linkReferences":{}},"methodIdentifiers":{"UPGRADE_INTERFACE_VERSION()":"ad3cb1cc","executeBatch((address,bytes)[])":"21566279","initialize(address)":"c4d66de8","isValidSignature(bytes32,bytes)":"1626ba7e","owner()":"8da5cb5b","proxiableUUID()":"52d1902d","renounceOwnership()":"715018a6","transferOwnership(address)":"f2fde38b","upgradeToAndCall(address,bytes)":"4f1ef286"},"id":55}