{"abi":[{"type":"constructor","inputs":[],"stateMutability":"nonpayable"},{"type":"function","name":"UPGRADE_INTERFACE_VERSION","inputs":[],"outputs":[{"name":"","type":"string","internalType":"string"}],"stateMutability":"view"},{"type":"function","name":"executeBatch","inputs":[{"name":"calls","type":"tuple[]","internalType":"struct IUSDTPaymaster.Call[]","components":[{"name":"to","type":"address","internalType":"address"},{"name":"data","type":"bytes","internalType":"bytes"}]}],"outputs":[],"stateMutability":"nonpayable"},{"type":"function","name":"initialize","inputs":[{"name":"_paymaster","type":"address","internalType":"address"},{"name":"_owner","type":"address","internalType":"address"}],"outputs":[],"stateMutability":"nonpayable"},{"type":"function","name":"isValidSignature","inputs":[{"name":"hash","type":"bytes32","internalType":"bytes32"},{"name":"signature","type":"bytes","internalType":"bytes"}],"outputs":[{"name":"","type":"bytes4","internalType":"bytes4"}],"stateMutability":"view"},{"type":"function","name":"owner","inputs":[],"outputs":[{"name":"","type":"address","internalType":"address"}],"stateMutability":"view"},{"type":"function","name":"paymaster","inputs":[],"outputs":[{"name":"","type":"address","internalType":"contract IUSDTPaymaster"}],"stateMutability":"view"},{"type":"function","name":"proxiableUUID","inputs":[],"outputs":[{"name":"","type":"bytes32","internalType":"bytes32"}],"stateMutability":"view"},{"type":"function","name":"renounceOwnership","inputs":[],"outputs":[],"stateMutability":"nonpayable"},{"type":"function","name":"setPaymaster","inputs":[{"name":"_paymaster","type":"address","internalType":"address"}],"outputs":[],"stateMutability":"nonpayable"},{"type":"function","name":"transferOwnership","inputs":[{"name":"newOwner","type":"address","internalType":"address"}],"outputs":[],"stateMutability":"nonpayable"},{"type":"function","name":"upgradeToAndCall","inputs":[{"name":"newImplementation","type":"address","internalType":"address"},{"name":"data","type":"bytes","internalType":"bytes"}],"outputs":[],"stateMutability":"payable"},{"type":"event","name":"BatchExecuted","inputs":[{"name":"caller","type":"address","indexed":false,"internalType":"address"},{"name":"callCount","type":"uint256","indexed":false,"internalType":"uint256"}],"anonymous":false},{"type":"event","name":"Initialized","inputs":[{"name":"version","type":"uint64","indexed":false,"internalType":"uint64"}],"anonymous":false},{"type":"event","name":"OwnershipTransferred","inputs":[{"name":"previousOwner","type":"address","indexed":true,"internalType":"address"},{"name":"newOwner","type":"address","indexed":true,"internalType":"address"}],"anonymous":false},{"type":"event","name":"Upgraded","inputs":[{"name":"implementation","type":"address","indexed":true,"internalType":"address"}],"anonymous":false},{"type":"error","name":"AddressEmptyCode","inputs":[{"name":"target","type":"address","internalType":"address"}]},{"type":"error","name":"ERC1967InvalidImplementation","inputs":[{"name":"implementation","type":"address","internalType":"address"}]},{"type":"error","name":"ERC1967NonPayable","inputs":[]},{"type":"error","name":"FailedCall","inputs":[]},{"type":"error","name":"InvalidInitialization","inputs":[]},{"type":"error","name":"NotInitializing","inputs":[]},{"type":"error","name":"OwnableInvalidOwner","inputs":[{"name":"owner","type":"address","internalType":"address"}]},{"type":"error","name":"OwnableUnauthorizedAccount","inputs":[{"name":"account","type":"address","internalType":"address"}]},{"type":"error","name":"UUPSUnauthorizedCallContext","inputs":[]},{"type":"error","name":"UUPSUnsupportedProxiableUUID","inputs":[{"name":"slot","type":"bytes32","internalType":"bytes32"}]}],"bytecode":{"object":"0x60a060405230608052348015610013575f80fd5b5061001c610021565b6100d3565b7ff0c57e16840df040f15088dc2f81fe391c3923bec73e23a9662efc9c229c6a00805468010000000000000000900460ff16156100715760405163f92ee8a960e01b815260040160405180910390fd5b80546001600160401b03908116146100d05780546001600160401b0319166001600160401b0390811782556040519081527fc7f505b2f371ae2175ee4913f4499e1f2633a7b5936321eed1cdaeb6115181d29060200160405180910390a15b50565b608051610f036100f95f395f8181610797015281816107c001526109040152610f035ff3fe60806040526004361061009a575f3560e01c80634f1ef286116100625780634f1ef2861461017057806352d1902d14610183578063715018a6146101a55780638da5cb5b146101b9578063ad3cb1cc146101cd578063f2fde38b1461020a575f80fd5b80631626ba7e1461009e57806316e4cbf9146100db57806321566279146101115780632a97fa7714610132578063485cc95514610151575b5f80fd5b3480156100a9575f80fd5b506100bd6100b8366004610ba6565b610229565b6040516001600160e01b031990911681526020015b60405180910390f35b3480156100e6575f80fd5b505f546100f9906001600160a01b031681565b6040516001600160a01b0390911681526020016100d2565b34801561011c575f80fd5b5061013061012b366004610c1b565b61027c565b005b34801561013d575f80fd5b5061013061014c366004610ca5565b61049c565b34801561015c575f80fd5b5061013061016b366004610cbe565b6104c5565b61013061017e366004610d03565b6105d9565b34801561018e575f80fd5b506101976105f8565b6040519081526020016100d2565b3480156101b0575f80fd5b50610130610613565b3480156101c4575f80fd5b506100f9610626565b3480156101d8575f80fd5b506101fd604051806040016040528060058152602001640352e302e360dc1b81525081565b6040516100d29190610dbf565b348015610215575f80fd5b50610130610224366004610ca5565b610654565b5f80610236858585610691565b9050610240610626565b6001600160a01b0316816001600160a01b0316036102685750630b135d3f60e11b9050610275565b506001600160e01b031990505b9392505050565b5f546001600160a01b031633146102e45760405162461bcd60e51b815260206004820152602160248201527f53696d706c65373730324163636f756e743a206f6e6c79207061796d617374656044820152603960f91b60648201526084015b60405180910390fd5b60058111156103405760405162461bcd60e51b815260206004820152602260248201527f53696d706c65373730324163636f756e743a20626174636820746f6f206c6172604482015261676560f01b60648201526084016102db565b5f5b8181101561045e575f83838381811061035d5761035d610e0b565b905060200281019061036f9190610e1f565b61037d906020810190610ca5565b6001600160a01b031684848481811061039857610398610e0b565b90506020028101906103aa9190610e1f565b6103b8906020810190610e3d565b6040516103c6929190610e87565b5f604051808303815f865af19150503d805f81146103ff576040519150601f19603f3d011682016040523d82523d5f602084013e610404565b606091505b50509050806104555760405162461bcd60e51b815260206004820152601e60248201527f53696d706c65373730324163636f756e743a2063616c6c206661696c6564000060448201526064016102db565b50600101610342565b5060408051338152602081018390527f7ffb1df8fb1cb14bf915045200c5b519c9cdd3c996c3fa9e781810674194029c910160405180910390a15050565b6104a461071f565b5f80546001600160a01b0319166001600160a01b0392909216919091179055565b5f6104ce610751565b805490915060ff600160401b820416159067ffffffffffffffff165f811580156104f55750825b90505f8267ffffffffffffffff1660011480156105115750303b155b90508115801561051f575080155b1561053d5760405163f92ee8a960e01b815260040160405180910390fd5b845467ffffffffffffffff19166001178555831561056757845460ff60401b1916600160401b1785555b6105708661077b565b5f80546001600160a01b0319166001600160a01b03891617905583156105d057845460ff60401b19168555604051600181527fc7f505b2f371ae2175ee4913f4499e1f2633a7b5936321eed1cdaeb6115181d29060200160405180910390a15b50505050505050565b6105e161078c565b6105ea82610830565b6105f48282610838565b5050565b5f6106016108f9565b505f80516020610eae83398151915290565b61061b61071f565b6106245f610942565b565b7f9016d09d72d40fdae2fd8ceac6b6234c7706214fd39c1cd1e609a0528c199300546001600160a01b031690565b61065c61071f565b6001600160a01b03811661068557604051631e4fbdf760e01b81525f60048201526024016102db565b61068e81610942565b50565b5f8080806041859003610713575050604080515f80825260208281018085528990528388013590911a9282018390528635606083018190529087013560808301819052909350919060019060a0016020604051602081039080840390855afa1580156106ff573d5f803e3d5ffd5b505050602060405103519350505050610275565b505f9695505050505050565b33610728610626565b6001600160a01b0316146106245760405163118cdaa760e01b81523360048201526024016102db565b5f807ff0c57e16840df040f15088dc2f81fe391c3923bec73e23a9662efc9c229c6a005b92915050565b6107836109b2565b61068e816109d7565b306001600160a01b037f000000000000000000000000000000000000000000000000000000000000000016148061081257507f00000000000000000000000000000000000000000000000000000000000000006001600160a01b03166108065f80516020610eae833981519152546001600160a01b031690565b6001600160a01b031614155b156106245760405163703e46dd60e11b815260040160405180910390fd5b61068e61071f565b816001600160a01b03166352d1902d6040518163ffffffff1660e01b8152600401602060405180830381865afa925050508015610892575060408051601f3d908101601f1916820190925261088f91810190610e96565b60015b6108ba57604051634c9c8ce360e01b81526001600160a01b03831660048201526024016102db565b5f80516020610eae83398151915281146108ea57604051632a87526960e21b8152600481018290526024016102db565b6108f483836109df565b505050565b306001600160a01b037f000000000000000000000000000000000000000000000000000000000000000016146106245760405163703e46dd60e11b815260040160405180910390fd5b7f9016d09d72d40fdae2fd8ceac6b6234c7706214fd39c1cd1e609a0528c19930080546001600160a01b031981166001600160a01b03848116918217845560405192169182907f8be0079c531659141344cd1fd0a4f28419497f9722a3daafe3b4186f6b6457e0905f90a3505050565b6109ba610a34565b61062457604051631afcd79f60e31b815260040160405180910390fd5b61065c6109b2565b6109e882610a4d565b6040516001600160a01b038316907fbc7cd75a20ee27fd9adebab32041f755214dbc6bffa90cc0225b39da2e5c2d3b905f90a2805115610a2c576108f48282610ab0565b6105f4610b50565b5f610a3d610751565b54600160401b900460ff16919050565b806001600160a01b03163b5f03610a8257604051634c9c8ce360e01b81526001600160a01b03821660048201526024016102db565b5f80516020610eae83398151915280546001600160a01b0319166001600160a01b0392909216919091179055565b60605f610abd8484610b6f565b9050808015610ade57505f3d1180610ade57505f846001600160a01b03163b115b15610af357610aeb610b82565b915050610775565b8015610b1d57604051639996b31560e01b81526001600160a01b03851660048201526024016102db565b3d15610b3057610b2b610b9b565b610b49565b60405163d6bda27560e01b815260040160405180910390fd5b5092915050565b34156106245760405163b398979f60e01b815260040160405180910390fd5b5f805f835160208501865af49392505050565b6040513d81523d5f602083013e3d602001810160405290565b6040513d5f823e3d81fd5b5f805f60408486031215610bb8575f80fd5b83359250602084013567ffffffffffffffff80821115610bd6575f80fd5b818601915086601f830112610be9575f80fd5b813581811115610bf7575f80fd5b876020828501011115610c08575f80fd5b6020830194508093505050509250925092565b5f8060208385031215610c2c575f80fd5b823567ffffffffffffffff80821115610c43575f80fd5b818501915085601f830112610c56575f80fd5b813581811115610c64575f80fd5b8660208260051b8501011115610c78575f80fd5b60209290920196919550909350505050565b80356001600160a01b0381168114610ca0575f80fd5b919050565b5f60208284031215610cb5575f80fd5b61027582610c8a565b5f8060408385031215610ccf575f80fd5b610cd883610c8a565b9150610ce660208401610c8a565b90509250929050565b634e487b7160e01b5f52604160045260245ffd5b5f8060408385031215610d14575f80fd5b610d1d83610c8a565b9150602083013567ffffffffffffffff80821115610d39575f80fd5b818501915085601f830112610d4c575f80fd5b813581811115610d5e57610d5e610cef565b604051601f8201601f19908116603f01168101908382118183101715610d8657610d86610cef565b81604052828152886020848701011115610d9e575f80fd5b826020860160208301375f6020848301015280955050505050509250929050565b5f602080835283518060208501525f5b81811015610deb57858101830151858201604001528201610dcf565b505f604082860101526040601f19601f8301168501019250505092915050565b634e487b7160e01b5f52603260045260245ffd5b5f8235603e19833603018112610e33575f80fd5b9190910192915050565b5f808335601e19843603018112610e52575f80fd5b83018035915067ffffffffffffffff821115610e6c575f80fd5b602001915036819003821315610e80575f80fd5b9250929050565b818382375f9101908152919050565b5f60208284031215610ea6575f80fd5b505191905056fe360894a13ba1a3210667c828492db98dca3e2076cc3735a920a3ca505d382bbca2646970667358221220483111418637eb439e494fa20e69062414a8fd35d8432dbdf723fd59463fdb2d64736f6c63430008180033","linkReferences":{}},"methodIdentifiers":{"UPGRADE_INTERFACE_VERSION()":"ad3cb1cc","executeBatch((address,bytes)[])":"21566279","initialize(address,address)":"485cc955","isValidSignature(bytes32,bytes)":"1626ba7e","owner()":"8da5cb5b","paymaster()":"16e4cbf9","proxiableUUID()":"52d1902d","renounceOwnership()":"715018a6","setPaymaster(address)":"2a97fa77","transferOwnership(address)":"f2fde38b","upgradeToAndCall(address,bytes)":"4f1ef286"},"id":51}