{"abi":[{"type":"constructor","inputs":[],"stateMutability":"nonpayable"},{"type":"function","name":"UPGRADE_INTERFACE_VERSION","inputs":[],"outputs":[{"name":"","type":"string","internalType":"string"}],"stateMutability":"view"},{"type":"function","name":"addRelayer","inputs":[{"name":"relayer","type":"address","internalType":"address"}],"outputs":[],"stateMutability":"nonpayable"},{"type":"function","name":"executeBatch","inputs":[{"name":"userOp","type":"tuple","internalType":"struct IUSDTPaymaster.UserOperation","components":[{"name":"user","type":"address","internalType":"address"},{"name":"calls","type":"tuple[]","internalType":"struct IUSDTPaymaster.Call[]","components":[{"name":"to","type":"address","internalType":"address"},{"name":"data","type":"bytes","internalType":"bytes"}]}]},{"name":"signature","type":"bytes","internalType":"bytes"}],"outputs":[],"stateMutability":"nonpayable"},{"type":"function","name":"feeRate","inputs":[],"outputs":[{"name":"","type":"uint256","internalType":"uint256"}],"stateMutability":"view"},{"type":"function","name":"feeRecipient","inputs":[],"outputs":[{"name":"","type":"address","internalType":"address"}],"stateMutability":"view"},{"type":"function","name":"initialize","inputs":[{"name":"usdtTokenAddr","type":"address","internalType":"address"},{"name":"oracleAddr","type":"address","internalType":"address"},{"name":"_feeRecipient","type":"address","internalType":"address"},{"name":"initialOwner","type":"address","internalType":"address"}],"outputs":[],"stateMutability":"nonpayable"},{"type":"function","name":"isRelayer","inputs":[{"name":"relayer","type":"address","internalType":"address"}],"outputs":[{"name":"","type":"bool","internalType":"bool"}],"stateMutability":"view"},{"type":"function","name":"oracle","inputs":[],"outputs":[{"name":"","type":"address","internalType":"address"}],"stateMutability":"view"},{"type":"function","name":"owner","inputs":[],"outputs":[{"name":"","type":"address","internalType":"address"}],"stateMutability":"view"},{"type":"function","name":"proxiableUUID","inputs":[],"outputs":[{"name":"","type":"bytes32","internalType":"bytes32"}],"stateMutability":"view"},{"type":"function","name":"removeRelayer","inputs":[{"name":"relayer","type":"address","internalType":"address"}],"outputs":[],"stateMutability":"nonpayable"},{"type":"function","name":"setFeeRate","inputs":[{"name":"rate","type":"uint256","internalType":"uint256"}],"outputs":[],"stateMutability":"nonpayable"},{"type":"function","name":"setFeeRecipient","inputs":[{"name":"recipient","type":"address","internalType":"address"}],"outputs":[],"stateMutability":"nonpayable"},{"type":"function","name":"setOracle","inputs":[{"name":"_oracleAddr","type":"address","internalType":"address"}],"outputs":[],"stateMutability":"nonpayable"},{"type":"function","name":"upgradeToAndCall","inputs":[{"name":"newImplementation","type":"address","internalType":"address"},{"name":"data","type":"bytes","internalType":"bytes"}],"outputs":[],"stateMutability":"payable"},{"type":"function","name":"usdtToken","inputs":[],"outputs":[{"name":"","type":"address","internalType":"address"}],"stateMutability":"view"},{"type":"event","name":"BatchExecuted","inputs":[{"name":"user","type":"address","indexed":true,"internalType":"address"},{"name":"gasUsed","type":"uint256","indexed":false,"internalType":"uint256"},{"name":"compensation","type":"uint256","indexed":false,"internalType":"uint256"}],"anonymous":false},{"type":"event","name":"FeeRateUpdated","inputs":[{"name":"rate","type":"uint256","indexed":false,"internalType":"uint256"}],"anonymous":false},{"type":"event","name":"FeeRecipientUpdated","inputs":[{"name":"recipient","type":"address","indexed":false,"internalType":"address"}],"anonymous":false},{"type":"event","name":"Initialized","inputs":[{"name":"version","type":"uint64","indexed":false,"internalType":"uint64"}],"anonymous":false},{"type":"event","name":"OperationExecuted","inputs":[{"name":"user","type":"address","indexed":true,"internalType":"address"},{"name":"relayer","type":"address","indexed":true,"internalType":"address"},{"name":"operationHash","type":"bytes32","indexed":false,"internalType":"bytes32"},{"name":"gasUsed","type":"uint256","indexed":false,"internalType":"uint256"},{"name":"compensation","type":"uint256","indexed":false,"internalType":"uint256"},{"name":"fee","type":"uint256","indexed":false,"internalType":"uint256"},{"name":"callsData","type":"bytes","indexed":false,"internalType":"bytes"}],"anonymous":false},{"type":"event","name":"OracleUpdated","inputs":[{"name":"oracle","type":"address","indexed":false,"internalType":"address"}],"anonymous":false},{"type":"event","name":"RelayerAdded","inputs":[{"name":"relayer","type":"address","indexed":true,"internalType":"address"}],"anonymous":false},{"type":"event","name":"RelayerRemoved","inputs":[{"name":"relayer","type":"address","indexed":true,"internalType":"address"}],"anonymous":false},{"type":"event","name":"Upgraded","inputs":[{"name":"implementation","type":"address","indexed":true,"internalType":"address"}],"anonymous":false},{"type":"error","name":"AddressEmptyCode","inputs":[{"name":"target","type":"address","internalType":"address"}]},{"type":"error","name":"CallFailed","inputs":[]},{"type":"error","name":"ECDSAInvalidSignature","inputs":[]},{"type":"error","name":"ECDSAInvalidSignatureLength","inputs":[{"name":"length","type":"uint256","internalType":"uint256"}]},{"type":"error","name":"ECDSAInvalidSignatureS","inputs":[{"name":"s","type":"bytes32","internalType":"bytes32"}]},{"type":"error","name":"ERC1967InvalidImplementation","inputs":[{"name":"implementation","type":"address","internalType":"address"}]},{"type":"error","name":"ERC1967NonPayable","inputs":[]},{"type":"error","name":"FailedCall","inputs":[]},{"type":"error","name":"InvalidInitialization","inputs":[]},{"type":"error","name":"InvalidSignature","inputs":[]},{"type":"error","name":"NotInitializing","inputs":[]},{"type":"error","name":"NotRelayer","inputs":[]},{"type":"error","name":"ReentrancyGuardReentrantCall","inputs":[]},{"type":"error","name":"TransferFailed","inputs":[]},{"type":"error","name":"UUPSUnauthorizedCallContext","inputs":[]},{"type":"error","name":"UUPSUnsupportedProxiableUUID","inputs":[{"name":"slot","type":"bytes32","internalType":"bytes32"}]}],"bytecode":{"object":"0x60a080604052346100f05760017f9b779b17422d0df92223018b32b4d1fa46e071723d6817e2486d003becc55f0055306080527ff0c57e16840df040f15088dc2f81fe391c3923bec73e23a9662efc9c229c6a009081549060ff8260401c166100e157506001600160401b036002600160401b03198282160161009c575b6040516113df90816100f5823960805181818161027e01526103b50152f35b6001600160401b031990911681179091556040519081527fc7f505b2f371ae2175ee4913f4499e1f2633a7b5936321eed1cdaeb6115181d290602090a15f808061007d565b63f92ee8a960e01b8152600490fd5b5f80fdfe60806040526004361015610011575f80fd5b5f3560e01c806345596e2e14610114578063469048401461010f5780634f1ef2861461010a57806352d1902d14610105578063541d55481461010057806360f0a5ac146100fb5780637adbf973146100f65780637dc0d1d0146100f15780638da5cb5b146100ec578063978bbdb9146100e7578063a98ad46c146100e2578063ad3cb1cc146100dd578063dd39f00d146100d8578063e74b981b146100d3578063eee2121c146100ce5763f8c8765e146100c9575f80fd5b6107a0565b61072f565b6106bf565b610653565b6105f7565b610592565b610575565b61054d565b610525565b6104b5565b61044c565b61040c565b6103a3565b61022a565b610164565b34610160576020366003190112610160577f208f1b468d3d61f0f085e975bd9d04367c930d599642faad06695229f3eadcd86020600435610153611071565b80600255604051908152a1005b5f80fd5b34610160575f366003190112610160576003546040516001600160a01b039091168152602090f35b6001600160a01b0381160361016057565b634e487b7160e01b5f52604160045260245ffd5b90601f8019910116810190811067ffffffffffffffff8211176101d357604052565b61019d565b67ffffffffffffffff81116101d357601f01601f191660200190565b929192610200826101d8565b9161020e60405193846101b1565b829481845281830111610160578281602093845f960137010152565b60403660031901126101605760048035906102448261018c565b60243567ffffffffffffffff811161016057366023820112156101605761027490369060248185013591016101f4565b6001600160a01b037f00000000000000000000000000000000000000000000000000000000000000008116308114908115610388575b506103775790602083926102bc611071565b6040516352d1902d60e01b8152938491829088165afa5f9281610346575b50610308575050604051634c9c8ce360e01b81526001600160a01b0390921690820190815281906020010390fd5b83835f8051602061136a833981519152840361032a5761032883836110cb565b005b604051632a87526960e21b815290810184815281906020010390fd5b61036991935060203d602011610370575b61036181836101b1565b810190611009565b915f6102da565b503d610357565b60405163703e46dd60e11b81528390fd5b9050815f8051602061136a833981519152541614155f6102aa565b34610160575f366003190112610160577f00000000000000000000000000000000000000000000000000000000000000006001600160a01b031630036103fa5760206040515f8051602061136a8339815191528152f35b60405163703e46dd60e11b8152600490fd5b34610160576020366003190112610160576004356104298161018c565b60018060a01b03165f526004602052602060ff60405f2054166040519015158152f35b34610160576020366003190112610160576004356104698161018c565b610471611071565b6001600160a01b03165f818152600460205260408120805460ff191690557f10e1f7ce9fd7d1b90a66d13a2ab3cb8dd7f29f3f8d520b143b063ccfbab6906b9080a2005b34610160576020366003190112610160577f3df77beb5db05fcdd70a30fc8adf3f83f9501b68579455adbd100b818094039460206004356104f58161018c565b6104fd611071565b600180546001600160a01b0319166001600160a01b03929092169182179055604051908152a1005b34610160575f366003190112610160576001546040516001600160a01b039091168152602090f35b34610160575f366003190112610160576005546040516001600160a01b039091168152602090f35b34610160575f366003190112610160576020600254604051908152f35b34610160575f366003190112610160575f546040516001600160a01b039091168152602090f35b91908251928382525f5b8481106105e3575050825f602080949584010152601f8019910116010190565b6020818301810151848301820152016105c3565b34610160575f36600319011261016057604051604081019080821067ffffffffffffffff8311176101d35761064f9160405260058152640352e302e360dc1b60208201526040519182916020835260208301906105b9565b0390f35b34610160576020366003190112610160576004356106708161018c565b610678611071565b6001600160a01b03165f818152600460205260408120805460ff191660011790557f03580ee9f53a62b7cb409a2cb56f9be87747dd15017afc5cef6eef321e4fb2c59080a2005b34610160576020366003190112610160577f7a7b5a0a132f9e0581eb8527f66eae9ee89c2a3e79d4ac7e41a1f1f4d48a7fc260206004356106ff8161018c565b610707611071565b600380546001600160a01b0319166001600160a01b03929092169182179055604051908152a1005b3461016057600319604036820112610160576004359067ffffffffffffffff9081831161016057604090833603011261016057602435918183116101605736602384011215610160578260040135918211610160573660248385010111610160576024610328930190600401610986565b34610160576080366003190112610160576004356107bd8161018c565b602435906107ca8261018c565b6044356107d68161018c565b606435906107e38261018c565b5f8051602061138a833981519152549367ffffffffffffffff60ff8660401c161595168015908161097e575b6001149081610974575b15908161096b575b50610959575f8051602061138a833981519152805467ffffffffffffffff1916600117905561089b93856108e95791909160018060a01b0392838092816bffffffffffffffffffffffff60a01b971687600554161760055516855f5416175f5516836001541617600155169060035416176003555f600255565b6108a157005b5f8051602061138a833981519152805460ff60401b19169055604051600181527fc7f505b2f371ae2175ee4913f4499e1f2633a7b5936321eed1cdaeb6115181d290602090a1005b5f8051602061138a833981519152805460ff60401b19166801000000000000000017905591909160018060a01b0392838092816bffffffffffffffffffffffff60a01b971687600554161760055516855f5416175f5516836001541617600155169060035416176003555f600255565b60405163f92ee8a960e01b8152600490fd5b9050155f610821565b303b159150610819565b86915061080f565b9091335f5260049060209082825260409060ff825f20541615610df6577f9b779b17422d0df92223018b32b4d1fa46e071723d6817e2486d003becc55f006002815414610de657906002610a3e9255610a38835197610a30868a018a6109ec8b83610ee3565b039a610a00601f199c8d81018352826101b1565b5190207f19457468657265756d205369676e6564204d6573736167653a0a3332000000005f52601c52603c5f2090565b9236916101f4565b906110b5565b91610a57610a4b86610f50565b6001600160a01b031690565b6001600160a01b0393841603610dd6575a93818601945f80610a9e610aaa610a7f8a8c610f5a565b89929192519384918a830194632156627960e01b865260248401610f90565b038d81018452836101b1565b82610ab48c610f50565b9251925af1610ac1610fa1565b9015610db75750610ad3905a90610fe4565b95610ade3a88610ff6565b60015483908590610af7906001600160a01b0316610a4b565b87516322b7047160e11b815292839182905afa8015610d6757610b3392610b25925f92610d98575b50610ff6565b670de0b6b3a7640000900490565b95610b4b610b4360025489610ff6565b612710900490565b5f54909390610b62906001600160a01b0316610a4b565b5f86610bad610b7087610f50565b8a516323b872dd60e01b8082526001600160a01b03909216878201908152336020820152604081018f905291959094859391928492839160600190565b03925af1908115610d67575f91610d7b575b5015610d6c5785859182610cb9575b50505050610bdb82610f50565b86610be6858a61103b565b87518b815260208101919091529116907f41b62e728bad24c9793175686912a5d3533ba7b6e0ab65afb69d36a7230354d290604090a2610c269082610f5a565b855194850199918591610c39918c610f90565b039081018452610c4990846101b1565b610c5290610f50565b9682519020925194859433981696610c6a9486611048565b037f87049e99026a9359d59b512955bc1dcc81e57ecd2882dec5a2286359e2fce72391a3610cb760017f9b779b17422d0df92223018b32b4d1fa46e071723d6817e2486d003becc55f0055565b565b5f54610ccd906001600160a01b0316610a4b565b610cd687610f50565b6003548b519384526001600160a01b0391821687850190815291166020820152604081019490945290928391908290036060019082905f905af1908115610d67575f91610d3a575b5015610d2c57838582610bce565b85516312171d8360e31b8152fd5b610d5a9150863d8811610d60575b610d5281836101b1565b810190611023565b5f610d1e565b503d610d48565b611018565b5085516312171d8360e31b8152fd5b610d929150873d8911610d6057610d5281836101b1565b5f610bbf565b610db0919250873d89116103705761036181836101b1565b905f610b1f565b8491508381519182610dd35750505051633204506f60e01b8152fd5b01fd5b8151638baa579f60e01b81528490fd5b8251633ee5aeb560e01b81528590fd5b815163c64891a560e01b81528490fd5b9035603e1982360301811215610160570190565b8183526020600583901b84018101939192905f818401855b848310610e43575050505050505090565b90919293949596601f199081888203018452610e5f8984610e06565b906040918035610e6e8161018c565b6001600160a01b031682528088013536829003601e190181121561016057019087823592019067ffffffffffffffff831161016057823603821361016057600194601f848b96958688978887015285015280606095868601375f85828601015201160101990193019301919594939290610e32565b90602082528035610ef38161018c565b6001600160a01b031660208381019190915281013536829003601e190181121561016057016020813591019067ffffffffffffffff8111610160578060051b3603821361016057606083604080610f4d9601520191610e1a565b90565b35610f4d8161018c565b903590601e1981360301821215610160570180359067ffffffffffffffff821161016057602001918160051b3603831361016057565b916020610f4d938181520191610e1a565b3d15610fcb573d90610fb2826101d8565b91610fc060405193846101b1565b82523d5f602084013e565b606090565b634e487b7160e01b5f52601160045260245ffd5b91908203918211610ff157565b610fd0565b81810292918115918404141715610ff157565b90816020910312610160575190565b6040513d5f823e3d90fd5b90816020910312610160575180151581036101605790565b91908201809211610ff157565b919260a093610f4d969592845260208401526040830152606082015281608082015201906105b9565b6005546001600160a01b0316330361108557565b60405162461bcd60e51b81526020600482015260086024820152672737ba27bbb732b960c11b6044820152606490fd5b610f4d916110c291611170565b909291926111c8565b90813b1561114f575f8051602061136a83398151915280546001600160a01b0319166001600160a01b0384169081179091557fbc7cd75a20ee27fd9adebab32041f755214dbc6bffa90cc0225b39da2e5c2d3b5f80a28051156111345761113191611255565b50565b50503461113d57565b60405163b398979f60e01b8152600490fd5b604051634c9c8ce360e01b81526001600160a01b0383166004820152602490fd5b81519190604183036111a0576111999250602082015190606060408401519301515f1a906112ce565b9192909190565b50505f9160029190565b600411156111b457565b634e487b7160e01b5f52602160045260245ffd5b6111d1816111aa565b806111da575050565b6111e3816111aa565b600181036111fd5760405163f645eedf60e01b8152600490fd5b611206816111aa565b600281036112275760405163fce698f760e01b815260048101839052602490fd5b806112336003926111aa565b1461123b5750565b6040516335e2f38360e21b81526004810191909152602490fd5b905f8091602081519101845af480806112bb575b15611278575050610f4d611350565b156112a057604051639996b31560e01b81526001600160a01b03919091166004820152602490fd5b3d15155f036110185760405163d6bda27560e01b8152600490fd5b503d1515806112695750813b1515611269565b91907f7fffffffffffffffffffffffffffffff5d576e7357a4501ddfe92f46681b20a08411611345579160209360809260ff5f9560405194855216868401526040830152606082015282805260015afa15610d67575f516001600160a01b0381161561133b57905f905f90565b505f906001905f90565b5050505f9160039190565b604051903d82523d5f602084013e60203d83010160405256fe360894a13ba1a3210667c828492db98dca3e2076cc3735a920a3ca505d382bbcf0c57e16840df040f15088dc2f81fe391c3923bec73e23a9662efc9c229c6a00a2646970667358221220e924804eb845abd1dd80acfd09910528ca516129ef49468fa20554eba3d82a0364736f6c63430008180033","linkReferences":{}},"methodIdentifiers":{"UPGRADE_INTERFACE_VERSION()":"ad3cb1cc","addRelayer(address)":"dd39f00d","executeBatch((address,(address,bytes)[]),bytes)":"eee2121c","feeRate()":"978bbdb9","feeRecipient()":"46904840","initialize(address,address,address,address)":"f8c8765e","isRelayer(address)":"541d5548","oracle()":"7dc0d1d0","owner()":"8da5cb5b","proxiableUUID()":"52d1902d","removeRelayer(address)":"60f0a5ac","setFeeRate(uint256)":"45596e2e","setFeeRecipient(address)":"e74b981b","setOracle(address)":"7adbf973","upgradeToAndCall(address,bytes)":"4f1ef286","usdtToken()":"a98ad46c"},"id":58}