{"abi":[{"type":"constructor","inputs":[],"stateMutability":"nonpayable"},{"type":"function","name":"UPGRADE_INTERFACE_VERSION","inputs":[],"outputs":[{"name":"","type":"string","internalType":"string"}],"stateMutability":"view"},{"type":"function","name":"addRelayer","inputs":[{"name":"relayer","type":"address","internalType":"address"}],"outputs":[],"stateMutability":"nonpayable"},{"type":"function","name":"executeBatch","inputs":[{"name":"userOp","type":"tuple","internalType":"struct IUSDTPaymaster.UserOperation","components":[{"name":"user","type":"address","internalType":"address"},{"name":"calls","type":"tuple[]","internalType":"struct IUSDTPaymaster.Call[]","components":[{"name":"to","type":"address","internalType":"address"},{"name":"data","type":"bytes","internalType":"bytes"}]}]},{"name":"signature","type":"bytes","internalType":"bytes"}],"outputs":[],"stateMutability":"nonpayable"},{"type":"function","name":"feeRate","inputs":[],"outputs":[{"name":"","type":"uint256","internalType":"uint256"}],"stateMutability":"view"},{"type":"function","name":"feeRecipient","inputs":[],"outputs":[{"name":"","type":"address","internalType":"address"}],"stateMutability":"view"},{"type":"function","name":"initialize","inputs":[{"name":"usdtTokenAddr","type":"address","internalType":"address"},{"name":"oracleAddr","type":"address","internalType":"address"},{"name":"_feeRecipient","type":"address","internalType":"address"},{"name":"_owner","type":"address","internalType":"address"}],"outputs":[],"stateMutability":"nonpayable"},{"type":"function","name":"isRelayer","inputs":[{"name":"relayer","type":"address","internalType":"address"}],"outputs":[{"name":"","type":"bool","internalType":"bool"}],"stateMutability":"view"},{"type":"function","name":"oracle","inputs":[],"outputs":[{"name":"","type":"address","internalType":"address"}],"stateMutability":"view"},{"type":"function","name":"owner","inputs":[],"outputs":[{"name":"","type":"address","internalType":"address"}],"stateMutability":"view"},{"type":"function","name":"proxiableUUID","inputs":[],"outputs":[{"name":"","type":"bytes32","internalType":"bytes32"}],"stateMutability":"view"},{"type":"function","name":"removeRelayer","inputs":[{"name":"relayer","type":"address","internalType":"address"}],"outputs":[],"stateMutability":"nonpayable"},{"type":"function","name":"renounceOwnership","inputs":[],"outputs":[],"stateMutability":"nonpayable"},{"type":"function","name":"setFeeRate","inputs":[{"name":"rate","type":"uint256","internalType":"uint256"}],"outputs":[],"stateMutability":"nonpayable"},{"type":"function","name":"setFeeRecipient","inputs":[{"name":"recipient","type":"address","internalType":"address"}],"outputs":[],"stateMutability":"nonpayable"},{"type":"function","name":"setOracle","inputs":[{"name":"_oracleAddr","type":"address","internalType":"address"}],"outputs":[],"stateMutability":"nonpayable"},{"type":"function","name":"transferOwnership","inputs":[{"name":"newOwner","type":"address","internalType":"address"}],"outputs":[],"stateMutability":"nonpayable"},{"type":"function","name":"upgradeToAndCall","inputs":[{"name":"newImplementation","type":"address","internalType":"address"},{"name":"data","type":"bytes","internalType":"bytes"}],"outputs":[],"stateMutability":"payable"},{"type":"function","name":"usdtToken","inputs":[],"outputs":[{"name":"","type":"address","internalType":"address"}],"stateMutability":"view"},{"type":"event","name":"BatchExecuted","inputs":[{"name":"user","type":"address","indexed":true,"internalType":"address"},{"name":"gasUsed","type":"uint256","indexed":false,"internalType":"uint256"},{"name":"compensation","type":"uint256","indexed":false,"internalType":"uint256"}],"anonymous":false},{"type":"event","name":"FeeRateUpdated","inputs":[{"name":"rate","type":"uint256","indexed":false,"internalType":"uint256"}],"anonymous":false},{"type":"event","name":"FeeRecipientUpdated","inputs":[{"name":"recipient","type":"address","indexed":false,"internalType":"address"}],"anonymous":false},{"type":"event","name":"Initialized","inputs":[{"name":"version","type":"uint64","indexed":false,"internalType":"uint64"}],"anonymous":false},{"type":"event","name":"OracleUpdated","inputs":[{"name":"oracle","type":"address","indexed":false,"internalType":"address"}],"anonymous":false},{"type":"event","name":"OwnershipTransferred","inputs":[{"name":"previousOwner","type":"address","indexed":true,"internalType":"address"},{"name":"newOwner","type":"address","indexed":true,"internalType":"address"}],"anonymous":false},{"type":"event","name":"RelayerAdded","inputs":[{"name":"relayer","type":"address","indexed":true,"internalType":"address"}],"anonymous":false},{"type":"event","name":"RelayerRemoved","inputs":[{"name":"relayer","type":"address","indexed":true,"internalType":"address"}],"anonymous":false},{"type":"event","name":"Upgraded","inputs":[{"name":"implementation","type":"address","indexed":true,"internalType":"address"}],"anonymous":false},{"type":"error","name":"AddressEmptyCode","inputs":[{"name":"target","type":"address","internalType":"address"}]},{"type":"error","name":"CallFailed","inputs":[]},{"type":"error","name":"ECDSAInvalidSignature","inputs":[]},{"type":"error","name":"ECDSAInvalidSignatureLength","inputs":[{"name":"length","type":"uint256","internalType":"uint256"}]},{"type":"error","name":"ECDSAInvalidSignatureS","inputs":[{"name":"s","type":"bytes32","internalType":"bytes32"}]},{"type":"error","name":"ERC1967InvalidImplementation","inputs":[{"name":"implementation","type":"address","internalType":"address"}]},{"type":"error","name":"ERC1967NonPayable","inputs":[]},{"type":"error","name":"FailedCall","inputs":[]},{"type":"error","name":"InvalidInitialization","inputs":[]},{"type":"error","name":"InvalidSignature","inputs":[]},{"type":"error","name":"NotInitializing","inputs":[]},{"type":"error","name":"NotRelayer","inputs":[]},{"type":"error","name":"OwnableInvalidOwner","inputs":[{"name":"owner","type":"address","internalType":"address"}]},{"type":"error","name":"OwnableUnauthorizedAccount","inputs":[{"name":"account","type":"address","internalType":"address"}]},{"type":"error","name":"ReentrancyGuardReentrantCall","inputs":[]},{"type":"error","name":"TransferFailed","inputs":[]},{"type":"error","name":"UUPSUnauthorizedCallContext","inputs":[]},{"type":"error","name":"UUPSUnsupportedProxiableUUID","inputs":[{"name":"slot","type":"bytes32","internalType":"bytes32"}]}],"bytecode":{"object":"0x60a060405230608052348015610013575f80fd5b5060017f9b779b17422d0df92223018b32b4d1fa46e071723d6817e2486d003becc55f0055610040610045565b6100f7565b7ff0c57e16840df040f15088dc2f81fe391c3923bec73e23a9662efc9c229c6a00805468010000000000000000900460ff16156100955760405163f92ee8a960e01b815260040160405180910390fd5b80546001600160401b03908116146100f45780546001600160401b0319166001600160401b0390811782556040519081527fc7f505b2f371ae2175ee4913f4499e1f2633a7b5936321eed1cdaeb6115181d29060200160405180910390a15b50565b60805161189d61011d5f395f8181610c8801528181610cb10152610df0015261189d5ff3fe608060405260043610610105575f3560e01c80638da5cb5b11610092578063dd39f00d11610062578063dd39f00d146102fb578063e74b981b1461031a578063eee2121c14610339578063f2fde38b14610358578063f8c8765e14610377575f80fd5b80638da5cb5b14610251578063978bbdb91461028d578063a98ad46c146102a2578063ad3cb1cc146102be575f80fd5b8063541d5548116100d8578063541d55481461019b57806360f0a5ac146101e2578063715018a6146102015780637adbf973146102155780637dc0d1d014610234575f80fd5b806345596e2e14610109578063469048401461012a5780634f1ef2861461016657806352d1902d14610179575b5f80fd5b348015610114575f80fd5b5061012861012336600461132e565b610396565b005b348015610135575f80fd5b50600354610149906001600160a01b031681565b6040516001600160a01b0390911681526020015b60405180910390f35b610128610174366004611374565b6103da565b348015610184575f80fd5b5061018d6103f9565b60405190815260200161015d565b3480156101a6575f80fd5b506101d26101b5366004611430565b6001600160a01b03165f9081526004602052604090205460ff1690565b604051901515815260200161015d565b3480156101ed575f80fd5b506101286101fc366004611430565b610414565b34801561020c575f80fd5b50610128610464565b348015610220575f80fd5b5061012861022f366004611430565b610477565b34801561023f575f80fd5b506001546001600160a01b0316610149565b34801561025c575f80fd5b507f9016d09d72d40fdae2fd8ceac6b6234c7706214fd39c1cd1e609a0528c199300546001600160a01b0316610149565b348015610298575f80fd5b5061018d60025481565b3480156102ad575f80fd5b505f546001600160a01b0316610149565b3480156102c9575f80fd5b506102ee604051806040016040528060058152602001640352e302e360dc1b81525081565b60405161015d9190611450565b348015610306575f80fd5b50610128610315366004611430565b6104cd565b348015610325575f80fd5b50610128610334366004611430565b610520565b348015610344575f80fd5b5061012861035336600461149c565b610576565b348015610363575f80fd5b50610128610372366004611430565b610aa9565b348015610382575f80fd5b50610128610391366004611532565b610aeb565b61039e610c22565b60028190556040518181527f208f1b468d3d61f0f085e975bd9d04367c930d599642faad06695229f3eadcd8906020015b60405180910390a150565b6103e2610c7d565b6103eb82610d21565b6103f58282610d29565b5050565b5f610402610de5565b505f8051602061184883398151915290565b61041c610c22565b6001600160a01b0381165f81815260046020526040808220805460ff19169055517f10e1f7ce9fd7d1b90a66d13a2ab3cb8dd7f29f3f8d520b143b063ccfbab6906b9190a250565b61046c610c22565b6104755f610e2e565b565b61047f610c22565b600180546001600160a01b0319166001600160a01b0383169081179091556040519081527f3df77beb5db05fcdd70a30fc8adf3f83f9501b68579455adbd100b8180940394906020016103cf565b6104d5610c22565b6001600160a01b0381165f81815260046020526040808220805460ff19166001179055517f03580ee9f53a62b7cb409a2cb56f9be87747dd15017afc5cef6eef321e4fb2c59190a250565b610528610c22565b600380546001600160a01b0319166001600160a01b0383169081179091556040519081527f7a7b5a0a132f9e0581eb8527f66eae9ee89c2a3e79d4ac7e41a1f1f4d48a7fc2906020016103cf565b335f9081526004602052604090205460ff166105a55760405163c64891a560e01b815260040160405180910390fd5b6105ad610e9e565b5f836040516020016105bf9190611583565b6040516020818303038152906040528051906020012090505f61060e827f19457468657265756d205369676e6564204d6573736167653a0a3332000000005f908152601c91909152603c902090565b90505f61065285858080601f0160208091040260200160405190810160405280939291908181526020018383808284375f920191909152508693925050610ecc9050565b90506106616020870187611430565b6001600160a01b0316816001600160a01b03161461069257604051638baa579f60e01b815260040160405180910390fd5b5f5a90505f5b6106a560208901896116bc565b90508110156107a9575f6106bc60208a018a6116bc565b838181106106cc576106cc611709565b90506020028101906106de919061171d565b6106ec906020810190611430565b6001600160a01b031661070260208b018b6116bc565b8481811061071257610712611709565b9050602002810190610724919061171d565b61073290602081019061173b565b60405161074092919061177e565b5f604051808303815f865af19150503d805f8114610779576040519150601f19603f3d011682016040523d82523d5f602084013e61077e565b606091505b50509050806107a057604051633204506f60e01b815260040160405180910390fd5b50600101610698565b505f5a6107b690836117a1565b90505f6107c33a836117b4565b90505f60015f9054906101000a90046001600160a01b03166001600160a01b031663456e08e26040518163ffffffff1660e01b8152600401602060405180830381865afa158015610816573d5f803e3d5ffd5b505050506040513d601f19601f8201168201806040525081019061083a91906117cb565b90505f670de0b6b3a764000061085083856117b4565b61085a91906117e2565b90505f6127106002548361086e91906117b4565b61087891906117e2565b90505f6108858284611801565b90505f8054906101000a90046001600160a01b03166001600160a01b03166323b872dd8e5f0160208101906108ba9190611430565b6040516001600160e01b031960e084901b1681526001600160a01b039091166004820152336024820152604481018690526064016020604051808303815f875af115801561090a573d5f803e3d5ffd5b505050506040513d601f19601f8201168201806040525081019061092e9190611814565b61094b576040516312171d8360e31b815260040160405180910390fd5b8115610a19575f8054906101000a90046001600160a01b03166001600160a01b03166323b872dd8e5f0160208101906109849190611430565b60035460405160e084901b6001600160e01b03191681526001600160a01b03928316600482015291166024820152604481018590526064016020604051808303815f875af11580156109d8573d5f803e3d5ffd5b505050506040513d601f19601f820116820180604052508101906109fc9190611814565b610a19576040516312171d8360e31b815260040160405180910390fd5b610a2660208e018e611430565b6001600160a01b03167f41b62e728bad24c9793175686912a5d3533ba7b6e0ab65afb69d36a7230354d28783604051610a69929190918252602082015260400190565b60405180910390a250505050505050505050610aa460017f9b779b17422d0df92223018b32b4d1fa46e071723d6817e2486d003becc55f0055565b505050565b610ab1610c22565b6001600160a01b038116610adf57604051631e4fbdf760e01b81525f60048201526024015b60405180910390fd5b610ae881610e2e565b50565b5f610af4610ef6565b805490915060ff600160401b820416159067ffffffffffffffff165f81158015610b1b5750825b90505f8267ffffffffffffffff166001148015610b375750303b155b905081158015610b45575080155b15610b635760405163f92ee8a960e01b815260040160405180910390fd5b845467ffffffffffffffff191660011785558315610b8d57845460ff60401b1916600160401b1785555b610b9686610f1e565b5f80546001600160a01b03808c166001600160a01b0319928316178355600180548c831690841617905560038054918b16919092161790556002558315610c1757845460ff60401b19168555604051600181527fc7f505b2f371ae2175ee4913f4499e1f2633a7b5936321eed1cdaeb6115181d29060200160405180910390a15b505050505050505050565b33610c547f9016d09d72d40fdae2fd8ceac6b6234c7706214fd39c1cd1e609a0528c199300546001600160a01b031690565b6001600160a01b0316146104755760405163118cdaa760e01b8152336004820152602401610ad6565b306001600160a01b037f0000000000000000000000000000000000000000000000000000000000000000161480610d0357507f00000000000000000000000000000000000000000000000000000000000000006001600160a01b0316610cf75f80516020611848833981519152546001600160a01b031690565b6001600160a01b031614155b156104755760405163703e46dd60e11b815260040160405180910390fd5b610ae8610c22565b816001600160a01b03166352d1902d6040518163ffffffff1660e01b8152600401602060405180830381865afa925050508015610d83575060408051601f3d908101601f19168201909252610d80918101906117cb565b60015b610dab57604051634c9c8ce360e01b81526001600160a01b0383166004820152602401610ad6565b5f805160206118488339815191528114610ddb57604051632a87526960e21b815260048101829052602401610ad6565b610aa48383610f2f565b306001600160a01b037f000000000000000000000000000000000000000000000000000000000000000016146104755760405163703e46dd60e11b815260040160405180910390fd5b7f9016d09d72d40fdae2fd8ceac6b6234c7706214fd39c1cd1e609a0528c19930080546001600160a01b031981166001600160a01b03848116918217845560405192169182907f8be0079c531659141344cd1fd0a4f28419497f9722a3daafe3b4186f6b6457e0905f90a3505050565b610ea6610f84565b60027f9b779b17422d0df92223018b32b4d1fa46e071723d6817e2486d003becc55f0055565b5f805f80610eda8686610fc6565b925092509250610eea828261100f565b50909150505b92915050565b5f807ff0c57e16840df040f15088dc2f81fe391c3923bec73e23a9662efc9c229c6a00610ef0565b610f266110c7565b610ae8816110ec565b610f38826110f4565b6040516001600160a01b038316907fbc7cd75a20ee27fd9adebab32041f755214dbc6bffa90cc0225b39da2e5c2d3b905f90a2805115610f7c57610aa48282611157565b6103f56111f7565b7f9b779b17422d0df92223018b32b4d1fa46e071723d6817e2486d003becc55f005460020361047557604051633ee5aeb560e01b815260040160405180910390fd5b5f805f8351604103610ffd576020840151604085015160608601515f1a610fef88828585611216565b955095509550505050611008565b505081515f91506002905b9250925092565b5f82600381111561102257611022611833565b0361102b575050565b600182600381111561103f5761103f611833565b0361105d5760405163f645eedf60e01b815260040160405180910390fd5b600282600381111561107157611071611833565b036110925760405163fce698f760e01b815260048101829052602401610ad6565b60038260038111156110a6576110a6611833565b036103f5576040516335e2f38360e21b815260048101829052602401610ad6565b6110cf6112de565b61047557604051631afcd79f60e31b815260040160405180910390fd5b610ab16110c7565b806001600160a01b03163b5f0361112957604051634c9c8ce360e01b81526001600160a01b0382166004820152602401610ad6565b5f8051602061184883398151915280546001600160a01b0319166001600160a01b0392909216919091179055565b60605f61116484846112f7565b905080801561118557505f3d118061118557505f846001600160a01b03163b115b1561119a5761119261130a565b915050610ef0565b80156111c457604051639996b31560e01b81526001600160a01b0385166004820152602401610ad6565b3d156111d7576111d2611323565b6111f0565b60405163d6bda27560e01b815260040160405180910390fd5b5092915050565b34156104755760405163b398979f60e01b815260040160405180910390fd5b5f80807f7fffffffffffffffffffffffffffffff5d576e7357a4501ddfe92f46681b20a084111561124f57505f915060039050826112d4565b604080515f808252602082018084528a905260ff891692820192909252606081018790526080810186905260019060a0016020604051602081039080840390855afa1580156112a0573d5f803e3d5ffd5b5050604051601f1901519150506001600160a01b0381166112cb57505f9250600191508290506112d4565b92505f91508190505b9450945094915050565b5f6112e7610ef6565b54600160401b900460ff16919050565b5f805f835160208501865af49392505050565b6040513d81523d5f602083013e3d602001810160405290565b6040513d5f823e3d81fd5b5f6020828403121561133e575f80fd5b5035919050565b80356001600160a01b038116811461135b575f80fd5b919050565b634e487b7160e01b5f52604160045260245ffd5b5f8060408385031215611385575f80fd5b61138e83611345565b9150602083013567ffffffffffffffff808211156113aa575f80fd5b818501915085601f8301126113bd575f80fd5b8135818111156113cf576113cf611360565b604051601f8201601f19908116603f011681019083821181831017156113f7576113f7611360565b8160405282815288602084870101111561140f575f80fd5b826020860160208301375f6020848301015280955050505050509250929050565b5f60208284031215611440575f80fd5b61144982611345565b9392505050565b5f602080835283518060208501525f5b8181101561147c57858101830151858201604001528201611460565b505f604082860101526040601f19601f8301168501019250505092915050565b5f805f604084860312156114ae575f80fd5b833567ffffffffffffffff808211156114c5575f80fd5b90850190604082880312156114d8575f80fd5b909350602085013590808211156114ed575f80fd5b818601915086601f830112611500575f80fd5b81358181111561150e575f80fd5b87602082850101111561151f575f80fd5b6020830194508093505050509250925092565b5f805f8060808587031215611545575f80fd5b61154e85611345565b935061155c60208601611345565b925061156a60408601611345565b915061157860608601611345565b905092959194509250565b60208082525f9060608084016001600160a01b03806115a188611345565b168487015283870135601e198836030181126115bb575f80fd5b8701803585820167ffffffffffffffff808311156115d7575f80fd5b8260051b8036038313156115e9575f80fd5b60408b8101819052968490528a016080908101965f918c0136879003605e19015b868410156116a9578d8a03607f190182528535818112611628575f80fd5b8801896116368e8301611345565b168b5283810135603e1982360301811261164e575f80fd5b01838101908d013586811115611662575f80fd5b803603821315611670575f80fd5b848e8d015280858d015280828e8e01375f8c82018e0152601f01601f1916909a018b019950948b019460019390930192908b019061160a565b50979d9c50505050505050505050505050565b5f808335601e198436030181126116d1575f80fd5b83018035915067ffffffffffffffff8211156116eb575f80fd5b6020019150600581901b3603821315611702575f80fd5b9250929050565b634e487b7160e01b5f52603260045260245ffd5b5f8235603e19833603018112611731575f80fd5b9190910192915050565b5f808335601e19843603018112611750575f80fd5b83018035915067ffffffffffffffff82111561176a575f80fd5b602001915036819003821315611702575f80fd5b818382375f9101908152919050565b634e487b7160e01b5f52601160045260245ffd5b81810381811115610ef057610ef061178d565b8082028115828204841417610ef057610ef061178d565b5f602082840312156117db575f80fd5b5051919050565b5f826117fc57634e487b7160e01b5f52601260045260245ffd5b500490565b80820180821115610ef057610ef061178d565b5f60208284031215611824575f80fd5b81518015158114611449575f80fd5b634e487b7160e01b5f52602160045260245ffdfe360894a13ba1a3210667c828492db98dca3e2076cc3735a920a3ca505d382bbca2646970667358221220380a37f36460ec12fdade77f07de5497c69f856cded5be1e29ca8904f5e0f45a64736f6c63430008180033","linkReferences":{}},"methodIdentifiers":{"UPGRADE_INTERFACE_VERSION()":"ad3cb1cc","addRelayer(address)":"dd39f00d","executeBatch((address,(address,bytes)[]),bytes)":"eee2121c","feeRate()":"978bbdb9","feeRecipient()":"46904840","initialize(address,address,address,address)":"f8c8765e","isRelayer(address)":"541d5548","oracle()":"7dc0d1d0","owner()":"8da5cb5b","proxiableUUID()":"52d1902d","removeRelayer(address)":"60f0a5ac","renounceOwnership()":"715018a6","setFeeRate(uint256)":"45596e2e","setFeeRecipient(address)":"e74b981b","setOracle(address)":"7adbf973","transferOwnership(address)":"f2fde38b","upgradeToAndCall(address,bytes)":"4f1ef286","usdtToken()":"a98ad46c"},"id":51}