{"abi":[{"type":"constructor","inputs":[{"name":"_router","type":"address","internalType":"address"},{"name":"_wbnb","type":"address","internalType":"address"},{"name":"_usdt","type":"address","internalType":"address"}],"stateMutability":"nonpayable"},{"type":"function","name":"USDT","inputs":[],"outputs":[{"name":"","type":"address","internalType":"address"}],"stateMutability":"view"},{"type":"function","name":"WBNB","inputs":[],"outputs":[{"name":"","type":"address","internalType":"address"}],"stateMutability":"view"},{"type":"function","name":"getBNBPriceInUSDT","inputs":[],"outputs":[{"name":"","type":"uint256","internalType":"uint256"}],"stateMutability":"view"},{"type":"function","name":"owner","inputs":[],"outputs":[{"name":"","type":"address","internalType":"address"}],"stateMutability":"view"},{"type":"function","name":"renounceOwnership","inputs":[],"outputs":[],"stateMutability":"nonpayable"},{"type":"function","name":"router","inputs":[],"outputs":[{"name":"","type":"address","internalType":"address"}],"stateMutability":"view"},{"type":"function","name":"setRouter","inputs":[{"name":"_router","type":"address","internalType":"address"}],"outputs":[],"stateMutability":"nonpayable"},{"type":"function","name":"transferOwnership","inputs":[{"name":"newOwner","type":"address","internalType":"address"}],"outputs":[],"stateMutability":"nonpayable"},{"type":"event","name":"OwnershipTransferred","inputs":[{"name":"previousOwner","type":"address","indexed":true,"internalType":"address"},{"name":"newOwner","type":"address","indexed":true,"internalType":"address"}],"anonymous":false},{"type":"error","name":"OwnableInvalidOwner","inputs":[{"name":"owner","type":"address","internalType":"address"}]},{"type":"error","name":"OwnableUnauthorizedAccount","inputs":[{"name":"account","type":"address","internalType":"address"}]}],"bytecode":{"object":"0x60c060405234801561000f575f80fd5b506040516106a93803806106a983398101604081905261002e916100f2565b338061005357604051631e4fbdf760e01b81525f600482015260240160405180910390fd5b61005c81610088565b50600180546001600160a01b0319166001600160a01b039485161790559082166080521660a052610132565b5f80546001600160a01b038381166001600160a01b0319831681178455604051919092169283917f8be0079c531659141344cd1fd0a4f28419497f9722a3daafe3b4186f6b6457e09190a35050565b80516001600160a01b03811681146100ed575f80fd5b919050565b5f805f60608486031215610104575f80fd5b61010d846100d7565b925061011b602085016100d7565b9150610129604085016100d7565b90509250925092565b60805160a0516105496101605f395f818161011101526101d201525f818160d7015261017f01526105495ff3fe608060405234801561000f575f80fd5b5060043610610085575f3560e01c8063c0d7865511610058578063c0d78655146100f9578063c54e44eb1461010c578063f2fde38b14610133578063f887ea4014610146575f80fd5b8063456e08e214610089578063715018a6146100a45780638da5cb5b146100ae5780638dd95002146100d2575b5f80fd5b610091610159565b6040519081526020015b60405180910390f35b6100ac6102b4565b005b5f546001600160a01b03165b6040516001600160a01b03909116815260200161009b565b6100ba7f000000000000000000000000000000000000000000000000000000000000000081565b6100ac6101073660046103ae565b6102c7565b6100ba7f000000000000000000000000000000000000000000000000000000000000000081565b6100ac6101413660046103ae565b6102f1565b6001546100ba906001600160a01b031681565b6040805160028082526060820183525f92839291906020830190803683370190505090507f0000000000000000000000000000000000000000000000000000000000000000815f815181106101b0576101b06103ef565b60200260200101906001600160a01b031690816001600160a01b0316815250507f000000000000000000000000000000000000000000000000000000000000000081600181518110610204576102046103ef565b6001600160a01b03928316602091820292909201015260015460405163d06ca61f60e01b81525f92919091169063d06ca61f9061024f90670de0b6b3a7640000908690600401610403565b5f60405180830381865afa158015610269573d5f803e3d5ffd5b505050506040513d5f823e601f3d908101601f19168201604052610290919081019061045a565b9050806001815181106102a5576102a56103ef565b60200260200101519250505090565b6102bc610333565b6102c55f61035f565b565b6102cf610333565b600180546001600160a01b0319166001600160a01b0392909216919091179055565b6102f9610333565b6001600160a01b03811661032757604051631e4fbdf760e01b81525f60048201526024015b60405180910390fd5b6103308161035f565b50565b5f546001600160a01b031633146102c55760405163118cdaa760e01b815233600482015260240161031e565b5f80546001600160a01b038381166001600160a01b0319831681178455604051919092169283917f8be0079c531659141344cd1fd0a4f28419497f9722a3daafe3b4186f6b6457e09190a35050565b5f602082840312156103be575f80fd5b81356001600160a01b03811681146103d4575f80fd5b9392505050565b634e487b7160e01b5f52604160045260245ffd5b634e487b7160e01b5f52603260045260245ffd5b5f604082018483526020604060208501528185518084526060860191506020870193505f5b8181101561044d5784516001600160a01b031683529383019391830191600101610428565b5090979650505050505050565b5f602080838503121561046b575f80fd5b825167ffffffffffffffff80821115610482575f80fd5b818501915085601f830112610495575f80fd5b8151818111156104a7576104a76103db565b8060051b604051601f19603f830116810181811085821117156104cc576104cc6103db565b6040529182528482019250838101850191888311156104e9575f80fd5b938501935b82851015610507578451845293850193928501926104ee565b9897505050505050505056fea26469706673582212202b2b619fa5cdf549d8d14d526f1ab6667994136fb830c538ae5f8f419a782ee664736f6c63430008180033","linkReferences":{}},"methodIdentifiers":{"USDT()":"c54e44eb","WBNB()":"8dd95002","getBNBPriceInUSDT()":"456e08e2","owner()":"8da5cb5b","renounceOwnership()":"715018a6","router()":"f887ea40","setRouter(address)":"c0d78655","transferOwnership(address)":"f2fde38b"},"id":52}