{"abi":[{"type":"constructor","inputs":[{"name":"_router","type":"address","internalType":"address"},{"name":"_wbnb","type":"address","internalType":"address"},{"name":"_usdt","type":"address","internalType":"address"}],"stateMutability":"nonpayable"},{"type":"function","name":"USDT","inputs":[],"outputs":[{"name":"","type":"address","internalType":"address"}],"stateMutability":"view"},{"type":"function","name":"WBNB","inputs":[],"outputs":[{"name":"","type":"address","internalType":"address"}],"stateMutability":"view"},{"type":"function","name":"getBNBPriceInUSDT","inputs":[],"outputs":[{"name":"","type":"uint256","internalType":"uint256"}],"stateMutability":"view"},{"type":"function","name":"owner","inputs":[],"outputs":[{"name":"","type":"address","internalType":"address"}],"stateMutability":"view"},{"type":"function","name":"renounceOwnership","inputs":[],"outputs":[],"stateMutability":"nonpayable"},{"type":"function","name":"router","inputs":[],"outputs":[{"name":"","type":"address","internalType":"address"}],"stateMutability":"view"},{"type":"function","name":"setRouter","inputs":[{"name":"_router","type":"address","internalType":"address"}],"outputs":[],"stateMutability":"nonpayable"},{"type":"function","name":"transferOwnership","inputs":[{"name":"newOwner","type":"address","internalType":"address"}],"outputs":[],"stateMutability":"nonpayable"},{"type":"event","name":"OwnershipTransferred","inputs":[{"name":"previousOwner","type":"address","indexed":true,"internalType":"address"},{"name":"newOwner","type":"address","indexed":true,"internalType":"address"}],"anonymous":false},{"type":"error","name":"OwnableInvalidOwner","inputs":[{"name":"owner","type":"address","internalType":"address"}]},{"type":"error","name":"OwnableUnauthorizedAccount","inputs":[{"name":"account","type":"address","internalType":"address"}]}],"bytecode":{"object":"0x60c03461010657601f61066c38819003918201601f19168301916001600160401b0383118484101761010a57808492606094604052833981010312610106576100478161011e565b9061006060406100596020840161011e565b920161011e565b9033156100ee575f80546001600160a01b03198082163390811784556040519691936001600160a01b03938416907f8be0079c531659141344cd1fd0a4f28419497f9722a3daafe3b4186f6b6457e09080a31690600154161760015560805260a052610539908161013382396080518181816101d101526102cb015260a05181818161014601526102fb0152f35b604051631e4fbdf760e01b81525f6004820152602490fd5b5f80fd5b634e487b7160e01b5f52604160045260245ffd5b51906001600160a01b03821682036101065756fe6080604090808252600480361015610015575f80fd5b5f3560e01c918263456e08e21461027e57508163715018a6146102275781638da5cb5b146102005781638dd95002146101bd578163c0d7865514610175578163c54e44eb14610132578163f2fde38b146100a3575063f887ea4014610078575f80fd5b3461009f575f36600319011261009f5760015490516001600160a01b039091168152602090f35b5f80fd5b823461009f57602036600319011261009f576001600160a01b0382358181169391929084900361009f576100d56104d8565b831561011c5750505f54826bffffffffffffffffffffffff60a01b8216175f55167f8be0079c531659141344cd1fd0a4f28419497f9722a3daafe3b4186f6b6457e05f80a3005b905f6024925191631e4fbdf760e01b8352820152fd5b823461009f575f36600319011261009f57517f00000000000000000000000000000000000000000000000000000000000000006001600160a01b03168152602090f35b3461009f57602036600319011261009f57356001600160a01b0381169081900361009f576101a16104d8565b6bffffffffffffffffffffffff60a01b60015416176001555f80f35b823461009f575f36600319011261009f57517f00000000000000000000000000000000000000000000000000000000000000006001600160a01b03168152602090f35b823461009f575f36600319011261009f575f5490516001600160a01b039091168152602090f35b3461009f575f36600319011261009f5761023f6104d8565b5f80546001600160a01b0319811682556001600160a01b03167f8be0079c531659141344cd1fd0a4f28419497f9722a3daafe3b4186f6b6457e08280a3005b83823461009f575f36600319011261009f5767ffffffffffffffff90606084018281118582101761046b578352600284526020938481019084368337805115610458576001600160a01b037f000000000000000000000000000000000000000000000000000000000000000081168352906102f8816104b4565b827f0000000000000000000000000000000000000000000000000000000000000000169052600192826001541692875194859363d06ca61f60e01b85526044850190670de0b6b3a7640000898701528a6024870152518091526064850193925f905b8c83831061043e575050505050509181805f9403915afa918215610434575f92610393575b505061038b91506104b4565b519051908152f35b9091503d805f843e6103a5818461047e565b820191858184031261009f5780519084821161009f57019082601f8301121561009f57815193841161042157508260051b8451936103e58783018661047e565b8452858085019183010192831161009f5785809201905b838210610412575050505061038b90848061037f565b815181529082019082016103fc565b604190634e487b7160e01b5f525260245ffd5b84513d5f823e3d90fd5b85518216875289975095860195909401939083019061035a565b603283634e487b7160e01b5f525260245ffd5b604182634e487b7160e01b5f525260245ffd5b90601f8019910116810190811067ffffffffffffffff8211176104a057604052565b634e487b7160e01b5f52604160045260245ffd5b8051600110156104c45760400190565b634e487b7160e01b5f52603260045260245ffd5b5f546001600160a01b031633036104eb57565b60405163118cdaa760e01b8152336004820152602490fdfea2646970667358221220e88460d490584be0a7d0b5aa4f3dac9d2268232d8241732dad66d0a6c0ce418564736f6c63430008180033","linkReferences":{}},"methodIdentifiers":{"USDT()":"c54e44eb","WBNB()":"8dd95002","getBNBPriceInUSDT()":"456e08e2","owner()":"8da5cb5b","renounceOwnership()":"715018a6","router()":"f887ea40","setRouter(address)":"c0d78655","transferOwnership(address)":"f2fde38b"},"id":54}